:020000040800F2
:100000000004002049010008350A0008030A00081E
:10001000310A0008F1030008C511000800000000C3
:100020000000000000000000000000005B0B000862
:100030004106000800000000F90A0008450C00080D
:100040006301000863010008630100086301000800
:1000500063010008630100086301000863010008F0
:1000600063010008630100086301000863010008E0
:1000700063010008630100086301000863010008D0
:1000800063010008630100086301000863010008C0
:1000900063010008630100086301000863010008B0
:1000A00063010008630100086301000863010008A0
:1000B0006301000863010008630100086301000890
:1000C0006301000863010008630100086301000880
:1000D0006301000863010008630100086301000870
:1000E0006301000863010008630100086301000860
:1000F0006301000863010008630100086301000850
:10010000630100086301000863010008630100083F
:10011000630100086301000863010008630100082F
:10012000630100086301000863010008630100081F
:10013000DFF810D000F01AF800480047DF1200087E
:10014000AFF30080000400200648804706480047BF
:10015000FEE7FEE7FEE7FEE7FEE7FEE7FEE7FEE777
:10016000FEE7FEE7490C000831010008064C074D88
:1001700006E0E06840F0010394E807009847103477
:10018000AC42F6D3FFF7D8FF201500083015000861
:1001900010B54FF48071044800F031FC4FF4007149
:1001A000014800F02AFC10BD0018014010B54FF4C2
:1001B0008071044800F021FC4FF40071014800F008
:1001C0001EFC10BD0018014010B54FF480710448AA
:1001D00000F013FC4FF40071014800F00EFC10BD5C
:1001E0000018014008B510208DF8030003208DF899
:1001F00002004FF48070ADF800000121402000F0B3
:100200008DFC6946424800F06DFB4FF40070ADF87C
:1002100000000121402000F081FC69463C4800F0CC
:1002200061FB4FF48060ADF800000121402000F038
:1002300075FC6946364800F055FB4FF40060ADF898
:1002400000000121402000F069FC6946304800F0C0
:1002500049FB4FF48050ADF800000121402000F030
:100260005DFC69462A4800F03DFB4FF40050ADF8B4
:1002700000000121402000F051FC6946244800F0B4
:1002800031FB4FF48040ADF800000121402000F028
:1002900045FC69461E4800F025FB4FF40040ADF8D0
:1002A00000000121402000F039FC6946184800F0A8
:1002B00019FB4020ADF800000121102000F02EFCB9
:1002C0006946144800F00EFB8020ADF800000121C3
:1002D000102000F023FC69460E4800F003FB4FF4A9
:1002E0008070ADF800000121102000F017FC694675
:1002F000084800F0F7FA4FF40070ADF80000012153
:10030000102000F00BFC6946024800F0EBFA08BD33
:10031000001801400010014010B5044614F1780F98
:1003200008DB782C06DC40F6B830A0EB0411022084
:1003300000F002FD10BD10B5044614F1780F08DB83
:10034000782C06DC40F6B830A0EB0411032000F056
:10035000F3FC10BD10B5044614F13C0F08DB3C2C37
:1003600006DC40F6B830A0EB0411042000F0E4FCF9
:1003700010BD000010B54FF48061044800F03FFB51
:100380004FF40061014800F038FB10BD0018014037
:1003900010B54FF48061044800F02FFB4FF400616A
:1003A000014800F02CFB10BD0018014010B54FF4BF
:1003B0008061044800F021FB4FF40061014800F027
:1003C0001CFB10BD0018014010B54FF4007102482D
:1003D00000F015FB10BD00000010014010B54FF4F7
:1003E0000071024800F009FB10BD00000010014040
:1003F00000BFFEE710B50446204600F0F9FE204697
:1004000000F015FF204600F031FF204600F04DFFC0
:100410004FF0FF3000F0D8FE4FF0FF3000F0F3FE59
:100420004FF0FF3000F00EFF4FF0FF3000F029FFDB
:1004300010BD10B50446204600F0DAFE204600F05C
:10044000F6FE204600F012FF204600F02EFF4FF08F
:10045000FF3000F0B9FE002000F0D5FE4FF0FF3075
:1004600000F0F0FE002000F00CFF10BD10B50446B7
:10047000204600F0BDFE204600F0D9FE204600F0E8
:10048000F5FE204600F011FF002000F09DFE4FF029
:10049000FF3000F0B8FE002000F0D4FE4FF0FF3037
:1004A00000F0EFFE10BD10B50446204600F0A0FE9F
:1004B000204600F0BCFE204600F0D8FE204600F0AA
:1004C000F4FE012000F080FE002000F09CFE0120E0
:1004D00000F0B8FE002000F0D4FE10BD10B50446B8
:1004E000204600F085FE204600F0A1FE204600F0E8
:1004F000BDFE204600F0D9FE012000F065FE01207F
:1005000000F081FE012000F09DFE012000F0B9FE08
:1005100010BD10B50446204600F06AFE204600F0EB
:1005200086FE204600F0A2FE204600F0BEFE00201F
:1005300000F04AFE012000F066FE002000F082FE7E
:10054000012000F09EFE10BD10B5002000F03CFE22
:10055000002000F058FE002000F074FE002000F0A3
:1005600090FE10BD10B54FF48051044800F047FADA
:100570004FF40051014800F040FA10BD001801404E
:1005800010B54FF48051044800F037FA4FF4005191
:10059000014800F034FA10BD0018014010B54FF4C6
:1005A0008051044800F029FA4FF40051014800F04E
:1005B00024FA10BD0018014010B5012000F001F828
:1005C00010BD10B5044654B1642C08D804EB840067
:1005D00040F6AC52A2EB4001012000F0ADFB10BD93
:1005E00010B56420FFF7EDFF10BD000010B54FF40B
:1005F0008041044800F003FA4FF40041014800F044
:10060000FCF910BD0018014010B54FF480410448BA
:1006100000F0F3F94FF40041014800F0F0F910BD8B
:100620000018014010B54FF48041044800F0E5F98E
:100630004FF40041014800F0E0F910BD00180140FE
:10064000704700B541F2883000F001F800BD10B5E8
:1006500000210AE0002203E05C1CE3B2541CA2B2B9
:10066000B2F5A06FF8DB4C1CA1B28142F2DB10BDE9
:1006700008B50121042000F051FA0120ADF8000076
:1006800018208DF8030003208DF8020069461B48EE
:1006900000F028F90121042000F040FA0220ADF812
:1006A000000018208DF8030003208DF80200694631
:1006B000124800F017F90121042000F02FFA04205D
:1006C000ADF8000018208DF8030003208DF802001B
:1006D00069460A4800F006F90121042000F01EFADC
:1006E0000820ADF8000018208DF8030003208DF8D5
:1006F00002006946014800F0F5F808BD0008014015
:100700000EB50121084600F0F9F9C720ADF8040044
:100710001720ADF800000020ADF80600ADF802008B
:100720008DF8080069464FF0804000F0F9FC0EBDDE
:1007300008B50121042000F0F1F94020ADF80000D7
:1007400018208DF8030003208DF8020069461B482D
:1007500000F0C8F80121042000F0E0F98020ADF895
:10076000000018208DF8030003208DF80200694670
:10077000124800F0B7F80121082000F0CFF901205D
:10078000ADF8000018208DF8030003208DF802005A
:1007900069460B4800F0A6F80121082000F0BEF9D8
:1007A0000220ADF8000018208DF8030003208DF81A
:1007B00002006946024800F095F808BD00080140B3
:1007C000000C01400EB50121022000F097F942F221
:1007D0001070ADF804002320ADF800000020ADF843
:1007E0000600ADF802008DF808006946014800F0E7
:1007F00097FC0EBD0004004008B50121082000F060
:100800008DF94020ADF8000018208DF8030003207A
:100810008DF8020069461C4800F064F801210820A8
:1008200000F07CF98020ADF8000018208DF803005E
:1008300003208DF802006946134800F053F80121A7
:10084000082000F06BF94FF48070ADF8000018201C
:100850008DF8030003208DF8020069460A4800F075
:1008600041F80121082000F059F94FF40070ADF86B
:10087000000018208DF8030003208DF8020069465F
:10088000014800F02FF808BD000C01400EB5012111
:10089000042000F033F942F21070ADF80400232078
:1008A000ADF800000020ADF80600ADF802008DF8AC
:1008B00008006946014800F033FC0EBD0008004006
:1008C00010B5FFF7D5FEFFF71BFFFFF731FFFFF76E
:1008D00079FFFFF791FFFFF7D9FF10BD10B5FFF7C4
:1008E00081FC10BD2DE9F0410246002500260020C4
:1008F00000230024002791F803C00CF00F0591F8A5
:1009000003C00CF0100CBCF1000F03D091F802C032
:100910004CEA050591F800C0BCF1000F31D0146815
:1009200000202BE04FF0010C0CFA00F3B1F800C0EE
:100930000CEA03069E4220D183004FF00F0C0CFA04
:1009400003F7BC4305FA03FC4CEA040491F803C026
:10095000BCF1280F06D14FF0010C0CFA00FCC2F8D4
:1009600014C00AE091F803C0BCF1480F05D14FF064
:10097000010C0CFA00FCC2F810C0401C0828D1D3AE
:100980001460B1F800C0BCF1FF0F34DD54680020E2
:100990002EE000F1080C4FF0010808FA0CF3B1F852
:1009A00000C00CEA03069E4221D183004FF00F0CD9
:1009B0000CFA03F7BC4305FA03FC4CEA040491F873
:1009C00003C0BCF1280F05D100F1080C08FA0CF89F
:1009D000C2F8148091F803C0BCF1480F07D100F1B0
:1009E000080C4FF0010808FA0CF8C2F81080401CFF
:1009F0000828CED35460BDE8F081416170470161A1
:100A0000704700BFFEE710B5FFF7EAFD6FF0130077
:100A1000FFF782FC6FF07700FFF78DFC6FF0180096
:100A2000FFF798FC002000F089F8FFF70AFE10BDE0
:100A300000BFFEE77047000010B540210148FFF7F6
:100A4000DCFF10BD0010014010B540210148FFF748
:100A5000D6FF10BD0010014010B580210148FFF7FE
:100A6000CCFF10BD0010014010B580210148FFF7F8
:100A7000C6FF10BD0010014010B54FF48071024850
:100A8000FFF7BBFF10BD00000010014010B54FF490
:100A900080710248FFF7B3FF10BD00000010014055
:100AA00010B5FFF79BFC42F21070FFF7D0FDFFF787
:100AB0008BFCFFF749FDFFF7BFFFFFF7CDFFFFF707
:100AC000DBFFFFF78BFC41F28830FFF7C0FDFFF73B
:100AD0007BFC10BD10B5FFF781FC42F21070FFF7F0
:100AE000B6FDFFF731FDFFF7AFFFFFF7BDFFFFF7E3
:100AF000CDFFFFF769FC10BD7047000029B1064A21
:100B0000D2690243044BDA6104E0034AD2698243AA
:100B1000014BDA61704700000010024029B1064A1B
:100B200092690243044B9A6104E0034A926982434A
:100B3000014B9A61704700000010024010B5044656
:100B400014F1780F08DB782C06DC40F6B830A0EB07
:100B50000411012000F036F910BD704710B500F007
:100B600001F810BD0CB500200190009033480068DA
:100B700040F480303149086000BF3048006800F41C
:100B8000003000900198401C0190009818B901981D
:100B9000B0F5A06FF1D12948006800F4003010B121
:100BA0000120009001E0002000900098012843D12E
:100BB0002348006840F0100021490860084600689A
:100BC00020F0030008600846006840F0020008605A
:100BD0001A48406819494860084640684860084615
:100BE000406840F4806048600846406820F47C100B
:100BF00048600846406840F4E810486008460068CD
:100C000040F08070086000BF0C48006800F0007081
:100C10000028F9D00948406820F0030007494860DF
:100C20000846406840F00200486000BF0348406842
:100C300000F00C000828F9D10CBD000000100240A3
:100C4000002002407047000010B51348006840F0D3
:100C500001001149086008464068104908400E49E3
:100C60004860084600680E4908400B49086008467D
:100C7000006820F4802008600846406820F4FE00E8
:100C800048604FF41F008860FFF768FF4FF0006076
:100C90000449086010BD0000001002400000FFF889
:100CA000FFFFF6FE08ED00E07FB504460D4660202C
:100CB000ADF800000120ADF802000020ADF80800FA
:100CC000A8B2ADF80600012C06D0022C0ED0032CE1
:100CD00016D0042C28D11DE069464FF0804000F06A
:100CE000C3F80821C80600F00BF91EE069464FF072
:100CF000804000F00FF90821C80600F05DF914E00B
:100D000069464FF0804000F065F90821C80600F000
:100D1000B1F90AE069464FF0804000F0B5F90821CA
:100D2000C80600F0EFF900E07FBD00BF0121880791
:100D300000F08EF800BFF7E77FB504460D4660204F
:100D4000ADF800000120ADF802000020ADF8080069
:100D5000A8B2ADF80600012C06D0022C0DD0032C51
:100D600014D0042C24D11AE06946154800F07CF810
:100D70000821134800F0C4F81BE06946104800F051
:100D8000C9F808210E4800F017F912E069460C482E
:100D900000F020F908210A4800F06CF909E06946E2
:100DA000074800F071F90821054800F0ABF900E0B0
:100DB0007FBD00BF0121024800F04AF800BFF7E7FD
:100DC000000400407FB504460D466020ADF80000E9
:100DD0000120ADF802000020ADF80800A8B2ADF87F
:100DE0000600012C06D0022C0DD0032C14D0042CAC
:100DF00024D11AE06946154800F036F80821134856
:100E000000F07EF81BE06946104800F083F80821E6
:100E10000E4800F0D1F812E069460C4800F0DAF80C
:100E200008210A4800F026F909E06946074800F061
:100E30002BF90821054800F065F900E07FBD00BFEF
:100E40000121024800F004F800BFF7E70008004065
:100E500021B1028842F00102028004E002884FF6CC
:100E6000FE731A400280704770B5002400220023F0
:100E7000058C4FF6FE7635400584028C8388048B02
:100E80004FF68F752C40B51E2C400D882C43751ED7
:100E90002A400D892A434D882A43144DA8420BD07D
:100EA000134DA84208D0134DA84205D0124DA842B8
:100EB00002D0124DA84213D14FF6F7752A404D8942
:100EC0002A434FF6FB752A408D882A434FF6FF656B
:100ED0002B404FF6FF552B408D892B43CD892B435B
:100EE00083800483CD888586028470BD002C0140F8
:100EF00000340140004001400044014000480140EE
:100F00000A460021018B4FF6F77319401143018304
:100F10007047000070B5002400220023058C4FF6B6
:100F2000EF7635400584028C8388048B48F6FF7584
:100F30002C404FF6FF452C400D884FF6FF7606EA11
:100F400005252C434FF6DF752A400D8906EA051565
:100F50002A434D8806EA05152A43154DA84202D0BA
:100F6000144DA8421DD14FF67F752A404D894FF68A
:100F7000FF7606EA05152A434FF6BF752A408D888D
:100F800006EA05152A434FF6FF352B404FF2FF7551
:100F90002B408D8906EA85052B43CD8906EA850518
:100FA0002B4383800483CD880587028470BD0000B5
:100FB000002C0140003401400A460021018B4FF211
:100FC000FF7319404FF6FF7303EA022319430183AD
:100FD0007047000070B5002400220023058C4FF6F6
:100FE000FF6635400584028C8388848B4FF68F75AD
:100FF0002C404FF6FC752C400D882C434FF6FF55C6
:101000002A400D894FF6FF7606EA05252A434D88CA
:1010100006EA05252A43154DA84202D0144DA842E0
:101020001DD14FF2FF752A404D894FF6FF7606EA33
:1010300005252A434FF6FF352A408D8806EA052507
:101040002A434EF6FF752B404DF6FF752B408D89D8
:1010500006EA05152B43CD8906EA05152B43838047
:101060008483CD888587028470BD0000002C0140F8
:10107000003401400A460021818B4FF6F773194076
:10108000114381837047000070B5002200230024C3
:10109000058C4EF6FF7635400584038C8488828B60
:1010A00048F6FF752A404FF6FF452A400D884FF657
:1010B000FF7606EA05252A434DF6FF752B400D897C
:1010C00006EA05352B434D8806EA05352B430B4DC3
:1010D000A84202D00A4DA84208D14BF6FF752C4019
:1010E0008D894FF6FF7606EA85152C43848082832E
:1010F000CD88A0F84050038470BD0000002C014052
:10110000003401400A460021818B4FF2FF731940E1
:101110004FF6FF7303EA02231943818370470000EF
:10112000002202881D4B98420ED01D4B98420BD0D6
:10113000B0F1804F08D01B4B984205D01A4B984213
:1011400002D01A4B984204D14FF68F731A404B8845
:101150001A43174B984207D0164B984204D04FF6CB
:10116000FF431A40CB881A4302808B8883850B8803
:1011700003850A4B98420BD0094B984208D00E4B7E
:10118000984205D00D4B984202D00D4B984201D1A8
:101190000B7A03860123838270470000002C0140F4
:1011A000003401400004004000080040000C0040F2
:1011B0000010004000140040004001400044014085
:1011C0000048014000BFFEE710B50446B4F1FF3F00
:1011D00005D03CB1012C08D1FEF7E8FF06E0FEF790
:1011E000D7FF03E0FEF7F0FF00E000BF00BF10BD37
:1011F00010B5044634B1642C04D804F16301012015
:10120000FFF752FD10BD10B50446B4F1FF3F05D005
:101210003CB1012C08D1FFF7BBF806E0FFF7AAF8B4
:1012200003E0FFF7C3F800E000BF00BF10BD10B53A
:10123000044634B1642C04D804F163010220FFF7A2
:1012400033FD10BD10B50446B4F1FF3F05D03CB1ED
:10125000012C08D1FFF794F906E0FFF783F903E0CA
:10126000FFF79CF900E000BF00BF10BD10B50446B9
:1012700034B1642C04D804F163010320FFF714FD9A
:1012800010BD10B50446B4F1FF3F05D03CB1012CB0
:1012900008D1FFF7B9F906E0FFF7A8F903E0FFF777
:1012A000C1F900E000BF00BF10BD10B5044634B165
:1012B000642C04D804F163010420FFF7F5FC10BD91
:1012C00002E008C8121F08C1002AFAD1704770470F
:1012D000002001E001C1121F002AFBD1704710B5A8
:1012E000FFF7EEFAFFF7FAFAFFF7F4FBFFF78BFBD5
:1012F000FFF7A7F9FFF772F8FFF7A3F9FFF764F814
:10130000FFF79FF9FFF720F95020FFF7E7F8FFF705
:1013100098F9FFF719F9FFF794F9FFF715F950203D
:10132000FFF768F8FFF78DF9FFF70EF9FFF789F976
:10133000FFF70AF95020FFF7B6F8FFF782F9FFF739
:1013400003F9FFF77EF9FFF7FFF85020FFF771F878
:10135000FFF777F9FFF7F8F8FFF773F9FFF7F4F8FD
:101360005020FFF7D6F8FFF76CF9FFF7EDF8FFF71D
:1013700068F9FFF7E9F85020FFF778F8FFF761F90F
:10138000FFF7E2F8FFF75DF9FFF728F8FFF759F9E3
:10139000FFF71AF8FFF755F91E20FEF7DBFFFFF7FE
:1013A00050F96FF01D00FEF7C6FFFFF74AF91E2047
:1013B000FEF7B2FFFFF745F95A20FFF7BFFBFFF733
:1013C00040F9FFF70DF9FFF73CF9FFF7F5F8FFF7E4
:1013D00038F9FFF703F8FFF734F9FEF7F5FFFFF7E9
:1013E00030F90020FFF7AAFBFFF72BF90A20FEF7E0
:1013F000B1FFFFF726F96FF05900FEF79CFFFFF7EA
:1014000020F96FF01D00FEF787FFFFF71AF9FFF7CD
:10141000E7F8FFF716F9FEF7E1FFFFF712F9FEF71D
:10142000D3FFFFF70EF9FFF70CF9FFF70AF9FFF703
:101430008BF85020FFF752F8FFF703F91E20FEF754
:1014400089FF6FF01D00FEF776FF1E20FEF764FF98
:101450005A20FFF773FBFFF7C3F8FFF7F2F8FFF727
:1014600073F8FFF7A9F8FFF7ECF8FFF7EAF8FEF7D3
:10147000B5FFFFF7E6F8FEF7A7FFFFF7E2F8FFF783
:10148000E0F8FFF761F85020FFF70DF8FFF7D9F803
:101490005020FFF723F80020FFF750FB0A20FEF74B
:1014A00059FF6FF05900FEF746FF6FF01D00FEF781
:1014B00033FFFFF7C6F8FFF793F8FFF745F8FFF79C
:1014C000C0F8FFF7BEF8FEF789FF4FF4FA60FFF7A8
:1014D000BEF8FEF779FF4FF4FA60FFF7B8F8FEF7B1
:1014E0007DFF4FF4FA60FFF7B2F8FEF76DFF4FF49F
:1014F000FA60FFF7ACF8FEF771FF4FF4FA60FFF700
:10150000A6F8FEF761FF4FF4FA60FFF7A0F8FFF7C7
:1015100098F8FFF778FAFFF7C3FA002010BD000033
:10152000301500080000002000040000D012000860
:0400000508000131BD
:00000001FF
